:100000000C9487000C94A6000C94A6000C94A600F7
:100010000C94A6000C94A6000C94A6000C94A600C8
:100020000C94A6000C94A6000C94A6000C94A600B8
:100030000C94A6000C941F010C94A6000C94A6002E
:100040000C94A6000C94A6000C94A6000C94A60098
:100050000C94A6000C94A6000C94A6000C94A60088
:100060000C94A6000C94A6000C94A6000C94A60078
:100070000C94A6000C94A6000C94A6000C94A60068
:100080000C94A6000C94A6000C94A60007634236BC
:10009000B79BD8A71A39685618AEBAAB558C1D3C19
:1000A000B7CC5763BD6DEDFD753EF6177231BF00DD
:1000B0000000803F08000000BE922449123EABAA17
:1000C000AA2ABECDCCCC4C3E00000080BEABAAAA72
:1000D000AA3E00000000BF000000803F00000000BA
:1000E00000084178D3BB4387D1133D190E3CC3BDF3
:1000F0004282AD2B3E68EC8276BED98FE1A93E4CA0
:1001000080EFFFBE01C4FF7F3F000000000011240C
:100110001FBECFEFD0E4DEBFCDBF11E0A0E0B1E065
:10012000EAEFFDE000E00BBF02C007900D92A231A4
:10013000B107D9F721E0A2E1B1E001C01D92A332DD
:10014000B207E1F70E94E2020C94FB060C94000057
:10015000CF93DF9300D01F92CDB7DEB789837B8327
:100160006A8389818A3031F48A819B81BC018DE068
:100170000E94A80080EC90E0FC018081882F90E034
:1001800080729927892BB1F386EC90E02981FC01DC
:10019000208380E090E00F900F900F90DF91CF913F
:1001A0000895CF93DF93CDB7DEB781E890E02BE0E1
:1001B000FC01208388E890E02DE730E0FC013183EA
:1001C00020838FE690E022E0FC01208384E890E029
:1001D000FC011182108280910E0190910F01A0917B
:1001E0001001B09111018093130190931401A09319
:1001F0001501B09316018FE590E02FE530E0F9018D
:1002000020812068FC0120830000DF91CF910895B8
:10021000CF93DF93CDB7DEB781E890E0FC01108289
:100220000000DF91CF910895CF93DF93CDB7DEB774
:1002300081E0809312010000DF91CF9108951F9219
:100240000F9200905F000F92112400905B000F92BC
:100250002F933F934F935F936F937F938F939F93CE
:10026000AF93BF93EF93FF93CF93DF93CDB7DEB7F9
:100270008091130190911401A0911501B091160184
:100280000197A109B1098093130190931401A093E0
:100290001501B09316018091130190911401A09162
:1002A0001501B0911601892B8A2B8B2B91F40E949A
:1002B000140180910E0190910F01A0911001B09155
:1002C00011018093130190931401A0931501B09331
:1002D00016010000DF91CF91FF91EF91BF91AF9197
:1002E0009F918F917F916F915F914F913F912F914E
:1002F0000F9000925B000F9000925F000F901F9094
:100300001895CF93DF9300D000D0CDB7DEB76983C7
:100310007A838B839C8389819A81AB81BC81809312
:100320000E0190930F01A0931001B09311018091E1
:100330000E0190910F01A0911001B09111018093D5
:10034000130190931401A0931501B09316010000BE
:100350000F900F900F900F90DF91CF910895CF9352
:10036000DF93CDB7DEB78AE790E02AE730E0F90106
:100370002081206EFC0120830000DF91CF91089541
:10038000CF93DF931F92CDB7DEB789838CE790E0E0
:100390002981283028F02CE730E0F901208101C0C4
:1003A0002981FC0120831092170106C00000809172
:1003B00017018F5F80931701809117018F30B0F381
:1003C00000000F90DF91CF910895CF93DF93CDB7C9
:1003D000DEB780911801909119018332924050F05C
:1003E00080911D018230B0F080911D01869580932F
:1003F0001D0110C08091180190911901893D914013
:1004000048F480911D0188232CF080911D01880FF4
:1004100080931D0180911E0190911F01893D9140A3
:1004200050F4809122018032B0F480912201880F33
:100430008093220110C080911E0190911F0188328B
:10044000924048F080912201823028F08091220170
:100450008695809322010000DF91CF910895CF927D
:10046000DF92EF92FF92CF93DF93CDB7DEB780E0BC
:100470000E94C00188E790E0FC0180819181909307
:1004800019018093180181E00E94C00188E790E083
:10049000FC018081918190931F0180931E018091C6
:1004A0001801909119018A599140CC01A0E0B0E067
:1004B000BC01CD010E94BC03DC01CB0120E030E097
:1004C00040E050E4BC01CD010E944A046B017C0174
:1004D00080911E0190911F018A599140CC01A0E0AA
:1004E000B0E0BC01CD010E94BC03DC01CB0120E0E7
:1004F00030E040E050E4BC01CD010E944A04DC0140
:10050000CB019C01AD01C701B6010E941A03DC01B9
:10051000CB01BC01CD010E94A004DC01CB01BC01D8
:10052000CD010E948603DC01CB01909321018093D1
:10053000200180911B0190911C01009719F00197F7
:1005400071F024C088E080931D0180E28093220135
:1005500081E090E090931C0180931B011EC080916C
:100560002001909121018034910548F00E94E5011D
:1005700081E090E090931C0180931B010EC081E00C
:1005800090E090931C0180931B0107C081E090E0F4
:1005900090931C0180931B01000088E290E0209161
:1005A0001D01FC0120838BE290E020912201209527
:1005B000FC0120830000DF91CF91FF90EF90DF904E
:1005C000CF900895CF93DF93CDB7DEB781E290E06F
:1005D000FC01108282E290E02FEFFC0120838AE28E
:1005E00090E02FEFFC0120838BE290E0FC01108271
:1005F00087E290E02FEFFC01208388E290E0FC018D
:10060000108264EF71E080E090E00E94810110921E
:100610001C0110921B010E94D1000E94AF010E9498
:100620002F020000809112018823E1F31092120141
:10063000F6CF5058BB27AA270E9431030C94100410
:100640000E94020438F00E94090420F039F49F3F10
:1006500019F426F40C94FF030EF4E095E7FB0C94D8
:10066000F903E92F0E94210458F3BA1762077307B0
:100670008407950720F079F4A6F50C9443040EF452
:10068000E0950B2EBA2FA02D0B01B90190010C01A2
:10069000CA01A0011124FF27591B99F0593F50F4BA
:1006A000503E68F11A16F040A22F232F342F442712
:1006B000585FF3CF469537952795A795F04053950A
:1006C000C9F77EF41F16BA0B620B730B840BBAF0DA
:1006D0009150A1F0FF0FBB1F661F771F881FC2F745
:1006E0000EC0BA0F621F731F841F48F48795779559
:1006F0006795B795F7959E3F08F0B0CF9395880F13
:1007000008F09927EE0F9795879508950E948D031D
:100710006894B1110C94440408950E94290488F04F
:100720009F5798F0B92F9927B751B0F0E1F0660FB5
:10073000771F881F991F1AF0BA95C9F714C0B130F6
:1007400091F00E944304B1E008950C944304672F94
:10075000782F8827B85F39F0B93FCCF38695779525
:100760006795B395D9F73EF490958095709561950E
:100770007F4F8F4F9F4F0895E89409C097FB3EF439
:1007800090958095709561957F4F8F4F9F4F9923DE
:10079000A9F0F92F96E9BB279395F695879577955C
:1007A0006795B795F111F8CFFAF4BB0F11F460FF1C
:1007B0001BC06F5F7F4F8F4F9F4F16C0882311F074
:1007C00096E911C0772321F09EE8872F762F05C088
:1007D000662371F096E8862F70E060E02AF09A9523
:1007E000660F771F881FDAF7880F9695879597F918
:1007F000089597F99F6780E870E060E008959FEFA3
:1008000080EC089500240A941616170618060906A7
:10081000089500240A941216130614060506089576
:10082000092E0394000C11F4882352F0BB0F40F4FE
:10083000BF2B11F460FF04C06F5F7F4F8F4F9F4F3E
:10084000089557FD9058440F551F59F05F3F71F0C0
:100850004795880F97FB991F61F09F3F79F0879527
:100860000895121613061406551FF2CF4695F1DFB0
:1008700008C0161617061806991FF1CF8695710540
:10088000610508940895E894BB2766277727CB0174
:1008900097F90895FA01EE0FFF1F309621053105F3
:1008A000A1F16115710561F48038BFE39B0749F13F
:1008B00068949038810561F08038BFEF9B0741F064
:1008C00099234AF5FF3FE1053105210519F1E89427
:1008D0000894E795D901AA2329F4AB2FBE2FF85F1E
:1008E000D0F310C0FF5F70F4A695E0F7F73950F031
:1008F00019F0FF3A38F49F779F930DD00F9007FCC3
:100900009058089546F00C94FF0360E070E080E892
:100910009FE308954FE79F775F934F933F932F9304
:100920000E94A0052F913F914F915F910E941C065C
:100930000C94E80419F416F40C94FF030C941A05B3
:100940000E942904B8F39923C9F3B6F39F57550BB6
:1009500087FF0E9428050024A0E640EA9001805805
:100960005695979528F4805C660F771F881F20F0B6
:1009700026173707480730F4621B730B840B2029B6
:1009800031294A2BA69517940794202531254A270B
:1009900058F7660F771F881F20F02617370748077C
:1009A00030F4620B730B840B200D311D411DA0959B
:1009B00081F7B901842F9158880F969587950895EE
:1009C00029F416F00C94F9030C9443040C94FF03DF
:1009D0000E942904A8F39638A0F707F80F92E8942C
:1009E0002BE33AEA48EB5FE70E9432060F920F9240
:1009F0000F924DB75EB70F920E94E805ECE8F0E069
:100A00000E942F054F915F91EF91FF91E595EE1FA9
:100A1000FF1F49F0FE57E0684427EE0F441FFA9588
:100A2000E1F74195550B0E9462050F9007FE0C946B
:100A3000560508959F3F31F0915020F487957795A2
:100A40006795B795880F911D9695879597F90895A5
:100A500091505040660F771F881FD2F70895DF939B
:100A6000CF931F930F93FF92EF92DF927B018C0144
:100A7000689406C0DA2EEF010E942F06FE01E8946A
:100A8000A5912591359145915591A6F3EF010E94CD
:100A90003103FE019701A801DA9469F7DF90EF9026
:100AA000FF900F911F91CF91DF9108959B01AC01B1
:100AB00060E070E080E89FE30C9489060C94F903F1
:100AC0000C941A050E942904D8F39923C9F3940FB2
:100AD000511DA3F39150504094F059F0882332F007
:100AE000660F771F881F91505040C1F79E3F5105F8
:100AF0002CF7880F911D9695879597F908955F3F7C
:100B0000ACF0983E9CF0BB27869577956795B79596
:100B100008F4B1609395C1F7BB0F58F711F460FF6B
:100B2000E8CF6F5F7F4F8F4F9F4FE3CF0C9444040C
:100B300016F00C941A050C94FF0368940C94F903B6
:100B40000E942904A8F39923C1F3AEF3DF93CF9356
:100B50001F930F93FF92C92FDD2788232AF0219737
:100B6000660F771F881FDAF720E030E040E85FEB80
:100B70009FE3883920F0803E38F021968F770E94DD
:100B80001A03E4EBF0E004C00E941A03E1EEF0E087
:100B90000E942F058B01BE01EC01FB2E6F577109DE
:100BA0007595771F880B990B0E94BE0328E132E7E9
:100BB00041E35FE30E942F06AF2D9801AE01FF9045
:100BC0000F911F91CF91DF910E9431030C9410047B
:100BD000FA01DC01AA0FBB1F9B01AC01BF5728F42F
:100BE000222733274427507820C0B75190F4AB2FE9
:100BF0000024469537952795011CA395D2F3002034
:100C000071F0220F331F441FB395DAF30ED00C940A
:100C1000190361307105A0E88A07B94630F49B01D9
:100C2000AC016627772788279078309621F02083BB
:100C300031834283538308950E942F060C9410043D
:100C40000E94020438F00E94090420F0952311F05C
:100C50000C94F9030C94FF0311240C9444040E9497
:100C6000210470F3959FC1F3950F50E0551F629FCB
:100C7000F001729FBB27F00DB11D639FAA27F00DF5
:100C8000B11DAA1F649F6627B00DA11D661F829F1C
:100C90002227B00DA11D621F739FB00DA11D621F01
:100CA000839FA00D611D221F749F3327A00D611D1E
:100CB000231F849F600D211D822F762F6A2F112400
:100CC0009F5750409AF0F1F088234AF0EE0FFF1F33
:100CD000BB1F661F771F881F91505040A9F79E3F8A
:100CE000510580F00C94F9030C9444045F3FE4F345
:100CF000983ED4F3869577956795B795F795E795E0
:100D00009F5FC1F7FE2B880F911D9695879597F9E8
:100D100008950E949D060C9410040E94090458F046
:100D20000E94020440F029F45F3F29F00C94F9037B
:100D300051110C9444040C94FF030E94210468F3A5
:100D40009923B1F3552391F3951B550BBB27AA2784
:100D500062177307840738F09F5F5F4F220F331FBE
:100D6000441FAA1FA9F335D00E2E3AF0E0E832D086
:100D700091505040E695001CCAF72BD0FE2F29D089
:100D8000660F771F881FBB1F261737074807AB075B
:100D9000B0E809F0BB0B802DBF01FF2793585F4FD0
:100DA0003AF09E3F510578F00C94F9030C944404FA
:100DB0005F3FE4F3983ED4F3869577956795B795B2
:100DC000F7959F5FC9F7880F911D9695879597F9BD
:100DD0000895E1E0660F771F881FBB1F6217730736
:100DE0008407BA0720F0621B730B840BBA0BEE1F4B
:0A0DF00088F7E0950895F894FFCF0E
:100DFA000000000200000000A8000000000001003E
:020E0A000000E6
:00000001FF
